{"abi":[{"type":"constructor","inputs":[],"stateMutability":"nonpayable"},{"type":"function","name":"managers","inputs":[{"name":"","type":"address","internalType":"address"}],"outputs":[{"name":"","type":"bool","internalType":"bool"}],"stateMutability":"view"},{"type":"function","name":"owner","inputs":[],"outputs":[{"name":"","type":"address","internalType":"address"}],"stateMutability":"view"},{"type":"function","name":"setManager","inputs":[{"name":"manager_","type":"address","internalType":"address"},{"name":"value","type":"bool","internalType":"bool"}],"outputs":[],"stateMutability":"nonpayable"},{"type":"function","name":"transferOwnership","inputs":[{"name":"owner_","type":"address","internalType":"address"}],"outputs":[],"stateMutability":"nonpayable"}],"bytecode":{"object":"0x608060405234801561001057600080fd5b50600080546001600160a01b0319163390811782558152600160208190526040909120805460ff191690911790556101cf8061004d6000396000f3fe608060405234801561001057600080fd5b506004361061004c5760003560e01c80638da5cb5b14610051578063a5e90eee14610081578063f2fde38b146100bc578063fdff9b4d146100ec575b600080fd5b600054610064906001600160a01b031681565b6040516001600160a01b0390911681526020015b60405180910390f35b6100ba61008f36600461015d565b6001600160a01b03919091166000908152600160205260409020805460ff1916911515919091179055565b005b6100ba6100ca36600461013b565b600080546001600160a01b0319166001600160a01b0392909216919091179055565b61010f6100fa36600461013b565b60016020526000908152604090205460ff1681565b6040519015158152602001610078565b80356001600160a01b038116811461013657600080fd5b919050565b60006020828403121561014d57600080fd5b6101568261011f565b9392505050565b6000806040838503121561017057600080fd5b6101798361011f565b91506020830135801515811461018e57600080fd5b80915050925092905056fea264697066735822122004c3569b398c67234a3836e1926ddbcc92216ace953822367a3226c453b2b93b64736f6c63430008070033","linkReferences":{}},"methodIdentifiers":{"managers(address)":"fdff9b4d","owner()":"8da5cb5b","setManager(address,bool)":"a5e90eee","transferOwnership(address)":"f2fde38b"},"id":4}