{"abi":[{"type":"function","name":"deploy","inputs":[{"name":"name","type":"string","internalType":"string"},{"name":"symbol","type":"string","internalType":"string"},{"name":"owner","type":"address","internalType":"address"}],"outputs":[{"name":"","type":"address","internalType":"address"}],"stateMutability":"nonpayable"}],"bytecode":{"object":"0x608060405234801561001057600080fd5b5061130d806100206000396000f3fe608060405234801561001057600080fd5b506004361061002b5760003560e01c80636a032cd414610030575b600080fd5b61004361003e36600461013d565b61005f565b6040516001600160a01b03909116815260200160405180910390f35b600080848484604051610071906100a3565b61007d9392919061020e565b604051809103906000f080158015610099573d6000803e3d6000fd5b5095945050505050565b6110758061026383390190565b600082601f8301126100c157600080fd5b813567ffffffffffffffff808211156100dc576100dc61024c565b604051601f8301601f19908116603f011681019082821181831017156101045761010461024c565b8160405283815286602085880101111561011d57600080fd5b836020870160208301376000602085830101528094505050505092915050565b60008060006060848603121561015257600080fd5b833567ffffffffffffffff8082111561016a57600080fd5b610176878388016100b0565b9450602086013591508082111561018c57600080fd5b50610199868287016100b0565b92505060408401356001600160a01b03811681146101b657600080fd5b809150509250925092565b6000815180845260005b818110156101e7576020818501810151868301820152016101cb565b818111156101f9576000602083870101525b50601f01601f19169290920160200192915050565b60608152600061022160608301866101c1565b828103602084015261023381866101c1565b91505060018060a01b0383166040830152949350505050565b634e487b7160e01b600052604160045260246000fdfe60806040523480156200001157600080fd5b506040516200107538038062001075833981016040819052620000349162000328565b8251839083906200004d906003906020850190620001cb565b50805162000063906004906020840190620001cb565b505050620000806200007a6200009460201b60201c565b62000098565b6200008b81620000ea565b50505062000408565b3390565b600580546001600160a01b038381166001600160a01b0319831681179093556040519116919082907f8be0079c531659141344cd1fd0a4f28419497f9722a3daafe3b4186f6b6457e090600090a35050565b620000f46200016d565b6001600160a01b0381166200015f5760405162461bcd60e51b815260206004820152602660248201527f4f776e61626c653a206e6577206f776e657220697320746865207a65726f206160448201526564647265737360d01b60648201526084015b60405180910390fd5b6200016a8162000098565b50565b6005546001600160a01b03163314620001c95760405162461bcd60e51b815260206004820181905260248201527f4f776e61626c653a2063616c6c6572206973206e6f7420746865206f776e6572604482015260640162000156565b565b828054620001d990620003b5565b90600052602060002090601f016020900481019282620001fd576000855562000248565b82601f106200021857805160ff191683800117855562000248565b8280016001018555821562000248579182015b82811115620002485782518255916020019190600101906200022b565b50620002569291506200025a565b5090565b5b808211156200025657600081556001016200025b565b600082601f8301126200028357600080fd5b81516001600160401b0380821115620002a057620002a0620003f2565b604051601f8301601f19908116603f01168101908282118183101715620002cb57620002cb620003f2565b81604052838152602092508683858801011115620002e857600080fd5b600091505b838210156200030c5785820183015181830184015290820190620002ed565b838211156200031e5760008385830101525b9695505050505050565b6000806000606084860312156200033e57600080fd5b83516001600160401b03808211156200035657600080fd5b620003648783880162000271565b945060208601519150808211156200037b57600080fd5b506200038a8682870162000271565b604086015190935090506001600160a01b0381168114620003aa57600080fd5b809150509250925092565b600181811c90821680620003ca57607f821691505b60208210811415620003ec57634e487b7160e01b600052602260045260246000fd5b50919050565b634e487b7160e01b600052604160045260246000fd5b610c5d80620004186000396000f3fe608060405234801561001057600080fd5b50600436106101005760003560e01c8063715018a611610097578063a457c2d711610066578063a457c2d714610209578063a9059cbb1461021c578063dd62ed3e1461022f578063f2fde38b1461024257600080fd5b8063715018a6146101cb5780638da5cb5b146101d357806395d89b41146101ee5780639dc29fac146101f657600080fd5b8063313ce567116100d3578063313ce5671461016b578063395093511461017a57806340c10f191461018d57806370a08231146101a257600080fd5b806306fdde0314610105578063095ea7b31461012357806318160ddd1461014657806323b872dd14610158575b600080fd5b61010d610255565b60405161011a9190610b71565b60405180910390f35b610136610131366004610b47565b6102e7565b604051901515815260200161011a565b6002545b60405190815260200161011a565b610136610166366004610b0b565b6102ff565b6040516012815260200161011a565b610136610188366004610b47565b610323565b6101a061019b366004610b47565b610345565b005b61014a6101b0366004610ab6565b6001600160a01b031660009081526020819052604090205490565b6101a061035b565b6005546040516001600160a01b03909116815260200161011a565b61010d61036f565b6101a0610204366004610b47565b61037e565b610136610217366004610b47565b610390565b61013661022a366004610b47565b610410565b61014a61023d366004610ad8565b61041e565b6101a0610250366004610ab6565b610449565b60606003805461026490610bec565b80601f016020809104026020016040519081016040528092919081815260200182805461029090610bec565b80156102dd5780601f106102b2576101008083540402835291602001916102dd565b820191906000526020600020905b8154815290600101906020018083116102c057829003601f168201915b5050505050905090565b6000336102f58185856104c2565b5060019392505050565b60003361030d8582856105e7565b610318858585610661565b506001949350505050565b6000336102f5818585610336838361041e565b6103409190610bc6565b6104c2565b61034d610805565b610357828261085f565b5050565b610363610805565b61036d600061091e565b565b60606004805461026490610bec565b610386610805565b6103578282610970565b6000338161039e828661041e565b9050838110156104035760405162461bcd60e51b815260206004820152602560248201527f45524332303a2064656372656173656420616c6c6f77616e63652062656c6f77604482015264207a65726f60d81b60648201526084015b60405180910390fd5b61031882868684036104c2565b6000336102f5818585610661565b6001600160a01b03918216600090815260016020908152604080832093909416825291909152205490565b610451610805565b6001600160a01b0381166104b65760405162461bcd60e51b815260206004820152602660248201527f4f776e61626c653a206e6577206f776e657220697320746865207a65726f206160448201526564647265737360d01b60648201526084016103fa565b6104bf8161091e565b50565b6001600160a01b0383166105245760405162461bcd60e51b8152602060048201526024808201527f45524332303a20617070726f76652066726f6d20746865207a65726f206164646044820152637265737360e01b60648201526084016103fa565b6001600160a01b0382166105855760405162461bcd60e51b815260206004820152602260248201527f45524332303a20617070726f766520746f20746865207a65726f206164647265604482015261737360f01b60648201526084016103fa565b6001600160a01b0383811660008181526001602090815260408083209487168084529482529182902085905590518481527f8c5be1e5ebec7d5bd14f71427d1e84f3dd0314c0f7b2291e5b200ac8c7c3b92591015b60405180910390a3505050565b60006105f3848461041e565b9050600019811461065b578181101561064e5760405162461bcd60e51b815260206004820152601d60248201527f45524332303a20696e73756666696369656e7420616c6c6f77616e636500000060448201526064016103fa565b61065b84848484036104c2565b50505050565b6001600160a01b0383166106c55760405162461bcd60e51b815260206004820152602560248201527f45524332303a207472616e736665722066726f6d20746865207a65726f206164604482015264647265737360d81b60648201526084016103fa565b6001600160a01b0382166107275760405162461bcd60e51b815260206004820152602360248201527f45524332303a207472616e7366657220746f20746865207a65726f206164647260448201526265737360e81b60648201526084016103fa565b6001600160a01b0383166000908152602081905260409020548181101561079f5760405162461bcd60e51b815260206004820152602660248201527f45524332303a207472616e7366657220616d6f756e7420657863656564732062604482015265616c616e636560d01b60648201526084016103fa565b6001600160a01b03848116600081815260208181526040808320878703905593871680835291849020805487019055925185815290927fddf252ad1be2c89b69c2b068fc378daa952ba7f163c4a11628f55a4df523b3ef910160405180910390a361065b565b6005546001600160a01b0316331461036d5760405162461bcd60e51b815260206004820181905260248201527f4f776e61626c653a2063616c6c6572206973206e6f7420746865206f776e657260448201526064016103fa565b6001600160a01b0382166108b55760405162461bcd60e51b815260206004820152601f60248201527f45524332303a206d696e7420746f20746865207a65726f20616464726573730060448201526064016103fa565b80600260008282546108c79190610bc6565b90915550506001600160a01b038216600081815260208181526040808320805486019055518481527fddf252ad1be2c89b69c2b068fc378daa952ba7f163c4a11628f55a4df523b3ef910160405180910390a35050565b600580546001600160a01b038381166001600160a01b0319831681179093556040519116919082907f8be0079c531659141344cd1fd0a4f28419497f9722a3daafe3b4186f6b6457e090600090a35050565b6001600160a01b0382166109d05760405162461bcd60e51b815260206004820152602160248201527f45524332303a206275726e2066726f6d20746865207a65726f206164647265736044820152607360f81b60648201526084016103fa565b6001600160a01b03821660009081526020819052604090205481811015610a445760405162461bcd60e51b815260206004820152602260248201527f45524332303a206275726e20616d6f756e7420657863656564732062616c616e604482015261636560f01b60648201526084016103fa565b6001600160a01b0383166000818152602081815260408083208686039055600280548790039055518581529192917fddf252ad1be2c89b69c2b068fc378daa952ba7f163c4a11628f55a4df523b3ef91016105da565b80356001600160a01b0381168114610ab157600080fd5b919050565b600060208284031215610ac857600080fd5b610ad182610a9a565b9392505050565b60008060408385031215610aeb57600080fd5b610af483610a9a565b9150610b0260208401610a9a565b90509250929050565b600080600060608486031215610b2057600080fd5b610b2984610a9a565b9250610b3760208501610a9a565b9150604084013590509250925092565b60008060408385031215610b5a57600080fd5b610b6383610a9a565b946020939093013593505050565b600060208083528351808285015260005b81811015610b9e57858101830151858201604001528201610b82565b81811115610bb0576000604083870101525b50601f01601f1916929092016040019392505050565b60008219821115610be757634e487b7160e01b600052601160045260246000fd5b500190565b600181811c90821680610c0057607f821691505b60208210811415610c2157634e487b7160e01b600052602260045260246000fd5b5091905056fea264697066735822122006e4cd89d5121cf4ce86ffe80ebfe9c74dd04e4c98fadc56411a66ae3d08e70e64736f6c63430008070033a2646970667358221220185c720f2d6871af08026c9a36f6b6a8457cb238313b61fe03b73e40e153b42264736f6c63430008070033","linkReferences":{}},"methodIdentifiers":{"deploy(string,string,address)":"6a032cd4"},"id":2}