{"abi":[{"type":"function","name":"curvesTokenBalance","inputs":[{"name":"token","type":"address","internalType":"address"},{"name":"account","type":"address","internalType":"address"}],"outputs":[{"name":"","type":"uint256","internalType":"uint256"}],"stateMutability":"view"},{"type":"function","name":"curvesTokenSupply","inputs":[{"name":"token","type":"address","internalType":"address"}],"outputs":[{"name":"","type":"uint256","internalType":"uint256"}],"stateMutability":"view"}],"bytecode":{"object":"0x608060405234801561001057600080fd5b50610229806100206000396000f3fe608060405234801561001057600080fd5b50600436106100365760003560e01c806316593dcf1461003b5780634bcaad0b14610060575b600080fd5b61004e61004936600461018c565b610073565b60405190815260200160405180910390f35b61004e61006e3660046101a7565b6100ec565b6000816001600160a01b03166318160ddd6040518163ffffffff1660e01b815260040160206040518083038186803b1580156100ae57600080fd5b505afa1580156100c2573d6000803e3d6000fd5b505050506040513d601f19601f820116820180604052508101906100e691906101da565b92915050565b6040516370a0823160e01b81526001600160a01b038281166004830152600091908416906370a082319060240160206040518083038186803b15801561013157600080fd5b505afa158015610145573d6000803e3d6000fd5b505050506040513d601f19601f8201168201806040525081019061016991906101da565b9392505050565b80356001600160a01b038116811461018757600080fd5b919050565b60006020828403121561019e57600080fd5b61016982610170565b600080604083850312156101ba57600080fd5b6101c383610170565b91506101d160208401610170565b90509250929050565b6000602082840312156101ec57600080fd5b505191905056fea2646970667358221220f985b5b087bbc64fe2c58d53b3344915a211b166dd2cc1250d86891f42d9a48764736f6c63430008070033","linkReferences":{}},"methodIdentifiers":{"curvesTokenBalance(address,address)":"4bcaad0b","curvesTokenSupply(address)":"16593dcf"},"id":5}