{"abi":[{"type":"constructor","inputs":[],"stateMutability":"nonpayable"},{"type":"receive","stateMutability":"payable"},{"type":"function","name":"addFees","inputs":[{"name":"token","type":"address","internalType":"address"}],"outputs":[],"stateMutability":"payable"},{"type":"function","name":"balanceOf","inputs":[{"name":"token","type":"address","internalType":"address"},{"name":"account","type":"address","internalType":"address"}],"outputs":[{"name":"","type":"uint256","internalType":"uint256"}],"stateMutability":"view"},{"type":"function","name":"batchClaiming","inputs":[{"name":"tokenList","type":"address[]","internalType":"address[]"}],"outputs":[],"stateMutability":"nonpayable"},{"type":"function","name":"claimFees","inputs":[{"name":"token","type":"address","internalType":"address"}],"outputs":[],"stateMutability":"nonpayable"},{"type":"function","name":"curves","inputs":[],"outputs":[{"name":"","type":"address","internalType":"contract Curves"}],"stateMutability":"view"},{"type":"function","name":"getClaimableFees","inputs":[{"name":"token","type":"address","internalType":"address"},{"name":"account","type":"address","internalType":"address"}],"outputs":[{"name":"","type":"uint256","internalType":"uint256"}],"stateMutability":"view"},{"type":"function","name":"getUserTokens","inputs":[{"name":"user","type":"address","internalType":"address"}],"outputs":[{"name":"","type":"address[]","internalType":"address[]"}],"stateMutability":"view"},{"type":"function","name":"getUserTokensAndClaimable","inputs":[{"name":"user","type":"address","internalType":"address"}],"outputs":[{"name":"","type":"tuple[]","internalType":"struct FeeSplitter.UserClaimData[]","components":[{"name":"claimableFees","type":"uint256","internalType":"uint256"},{"name":"token","type":"address","internalType":"address"}]}],"stateMutability":"view"},{"type":"function","name":"managers","inputs":[{"name":"","type":"address","internalType":"address"}],"outputs":[{"name":"","type":"bool","internalType":"bool"}],"stateMutability":"view"},{"type":"function","name":"onBalanceChange","inputs":[{"name":"token","type":"address","internalType":"address"},{"name":"account","type":"address","internalType":"address"}],"outputs":[],"stateMutability":"nonpayable"},{"type":"function","name":"owner","inputs":[],"outputs":[{"name":"","type":"address","internalType":"address"}],"stateMutability":"view"},{"type":"function","name":"setCurves","inputs":[{"name":"curves_","type":"address","internalType":"contract Curves"}],"outputs":[],"stateMutability":"nonpayable"},{"type":"function","name":"setManager","inputs":[{"name":"manager_","type":"address","internalType":"address"},{"name":"value","type":"bool","internalType":"bool"}],"outputs":[],"stateMutability":"nonpayable"},{"type":"function","name":"totalSupply","inputs":[{"name":"token","type":"address","internalType":"address"}],"outputs":[{"name":"","type":"uint256","internalType":"uint256"}],"stateMutability":"view"},{"type":"function","name":"transferOwnership","inputs":[{"name":"owner_","type":"address","internalType":"address"}],"outputs":[],"stateMutability":"nonpayable"},{"type":"event","name":"FeesClaimed","inputs":[{"name":"token","type":"address","indexed":true,"internalType":"address"},{"name":"user","type":"address","indexed":true,"internalType":"address"},{"name":"amount","type":"uint256","indexed":false,"internalType":"uint256"}],"anonymous":false},{"type":"error","name":"NoFeesToClaim","inputs":[]},{"type":"error","name":"NoTokenHolders","inputs":[]}],"bytecode":{"object":"0x608060405234801561001057600080fd5b50600080546001600160a01b0319163390811782558152600160208190526040909120805460ff19169091179055610e2a8061004d6000396000f3fe6080604052600436106100ec5760003560e01c80638da5cb5b1161008a578063f079f3ea11610059578063f079f3ea146102bc578063f2fde38b146102f9578063f7888aec14610336578063fdff9b4d1461035657600080fd5b80638da5cb5b14610208578063a5e90eee14610228578063e4dc2aa41461026e578063ebf347121461029c57600080fd5b806320bf3447116100c657806320bf34471461015a578063519dc8d2146101905780635accf175146101bd57806364e084bf146101f557600080fd5b806309fc572f146100f857806315a0ea6a1461011a5780631e22e0731461013a57600080fd5b366100f357005b600080fd5b34801561010457600080fd5b50610118610113366004610bdc565b610396565b005b34801561012657600080fd5b50610118610135366004610b53565b6104d3565b34801561014657600080fd5b50610118610155366004610b70565b6105a4565b34801561016657600080fd5b5061017a610175366004610b53565b610628565b6040516101879190610cb7565b60405180910390f35b34801561019c57600080fd5b506101b06101ab366004610b53565b61072b565b6040516101879190610c6a565b3480156101c957600080fd5b506002546101dd906001600160a01b031681565b6040516001600160a01b039091168152602001610187565b610118610203366004610b53565b6107a1565b34801561021457600080fd5b506000546101dd906001600160a01b031681565b34801561023457600080fd5b50610118610243366004610ba9565b6001600160a01b03919091166000908152600160205260409020805460ff1916911515919091179055565b34801561027a57600080fd5b5061028e610289366004610b53565b610827565b604051908152602001610187565b3480156102a857600080fd5b5061028e6102b7366004610b70565b61094f565b3480156102c857600080fd5b506101186102d7366004610b53565b600280546001600160a01b0319166001600160a01b0392909216919091179055565b34801561030557600080fd5b50610118610314366004610b53565b600080546001600160a01b0319166001600160a01b0392909216919091179055565b34801561034257600080fd5b5061028e610351366004610b70565b6109ed565b34801561036257600080fd5b50610386610371366004610b53565b60016020526000908152604090205460ff1681565b6040519015158152602001610187565b6000805b828110156104815760008484838181106103b6576103b6610db0565b90506020020160208101906103cb9190610b53565b90506103d78133610a8f565b60006103e3823361094f565b9050801561046c576001600160a01b038216600090815260036020908152604080832033845260020190915281205561041c8185610d0f565b9350336001600160a01b0316826001600160a01b03167ffe3464cd748424446c37877c28ce5b700222c5bc9f90d908afcc4e5cb22707ff8360405161046391815260200190565b60405180910390a35b5050808061047990610d7f565b91505061039a565b50806104a05760405163211b631760e21b815260040160405180910390fd5b604051339082156108fc029083906000818181858888f193505050501580156104cd573d6000803e3d6000fd5b50505050565b6104dd8133610a8f565b60006104e9823361094f565b9050806105095760405163211b631760e21b815260040160405180910390fd5b6001600160a01b038216600090815260036020908152604080832033808552600290910190925280832083905551909183156108fc02918491818181858888f1935050505015801561055f573d6000803e3d6000fd5b5060405181815233906001600160a01b038416907ffe3464cd748424446c37877c28ce5b700222c5bc9f90d908afcc4e5cb22707ff9060200160405180910390a35050565b6001600160a01b03828116600090815260036020908152604080832080549486168452600181019092528220929092556105de84846109ed565b1115610623576001600160a01b0382811660009081526004602090815260408220805460018101825590835291200180546001600160a01b0319169185169190911790555b505050565b606060006106358361072b565b90506000815167ffffffffffffffff81111561065357610653610dc6565b60405190808252806020026020018201604052801561069857816020015b60408051808201909152600080825260208201528152602001906001900390816106715790505b50905060005b82518110156107235760008382815181106106bb576106bb610db0565b6020026020010151905060006106d1828861094f565b90506040518060400160405280828152602001836001600160a01b031681525084848151811061070357610703610db0565b60200260200101819052505050808061071b90610d7f565b91505061069e565b509392505050565b6001600160a01b03811660009081526004602090815260409182902080548351818402810184019094528084526060939283018282801561079557602002820191906000526020600020905b81546001600160a01b03168152600190910190602001808311610777575b50505050509050919050565b33600090815260016020526107b582610827565b9050806107d557604051630f1c0ab160e21b815260040160405180910390fd5b6001600160a01b038216600090815260036020526040902081610800670de0b6b3a764000034610d49565b61080a9190610d27565b81600001600082825461081d9190610d0f565b9091555050505050565b600254604051634bcaad0b60e01b81526001600160a01b03838116600483015290911660248201819052600091670de0b6b3a76400009190634bcaad0b9060440160206040518083038186803b15801561088057600080fd5b505afa158015610894573d6000803e3d6000fd5b505050506040513d601f19601f820116820180604052508101906108b89190610c51565b6002546040516316593dcf60e01b81526001600160a01b038681166004830152909116906316593dcf9060240160206040518083038186803b1580156108fd57600080fd5b505afa158015610911573d6000803e3d6000fd5b505050506040513d601f19601f820116820180604052508101906109359190610c51565b61093f9190610d68565b6109499190610d49565b92915050565b6001600160a01b03821660009081526003602052604081208161097285856109ed565b6001600160a01b038516600090815260018401602052604081205484549293509091839161099f91610d68565b6109a99190610d49565b6001600160a01b03861660009081526002850160205260409020549091506109d9670de0b6b3a764000083610d27565b6109e39190610d0f565b9695505050505050565b600254604051634bcaad0b60e01b81526001600160a01b0384811660048301528381166024830152600092670de0b6b3a764000092911690634bcaad0b9060440160206040518083038186803b158015610a4657600080fd5b505afa158015610a5a573d6000803e3d6000fd5b505050506040513d601f19601f82011682018060405250810190610a7e9190610c51565b610a889190610d49565b9392505050565b6001600160a01b038216600090815260036020526040812090610ab284846109ed565b905080156104cd576001600160a01b038316600090815260018301602052604081205483548391610ae291610d68565b610aec9190610d49565b9050610b00670de0b6b3a764000082610d27565b6001600160a01b038516600090815260028501602052604081208054909190610b2a908490610d0f565b909155505082546001600160a01b03851660009081526001850160205260409020555050505050565b600060208284031215610b6557600080fd5b8135610a8881610ddc565b60008060408385031215610b8357600080fd5b8235610b8e81610ddc565b91506020830135610b9e81610ddc565b809150509250929050565b60008060408385031215610bbc57600080fd5b8235610bc781610ddc565b915060208301358015158114610b9e57600080fd5b60008060208385031215610bef57600080fd5b823567ffffffffffffffff80821115610c0757600080fd5b818501915085601f830112610c1b57600080fd5b813581811115610c2a57600080fd5b8660208260051b8501011115610c3f57600080fd5b60209290920196919550909350505050565b600060208284031215610c6357600080fd5b5051919050565b6020808252825182820181905260009190848201906040850190845b81811015610cab5783516001600160a01b031683529284019291840191600101610c86565b50909695505050505050565b602080825282518282018190526000919060409081850190868401855b82811015610d02578151805185528601516001600160a01b0316868501529284019290850190600101610cd4565b5091979650505050505050565b60008219821115610d2257610d22610d9a565b500190565b600082610d4457634e487b7160e01b600052601260045260246000fd5b500490565b6000816000190483118215151615610d6357610d63610d9a565b500290565b600082821015610d7a57610d7a610d9a565b500390565b6000600019821415610d9357610d93610d9a565b5060010190565b634e487b7160e01b600052601160045260246000fd5b634e487b7160e01b600052603260045260246000fd5b634e487b7160e01b600052604160045260246000fd5b6001600160a01b0381168114610df157600080fd5b5056fea26469706673582212202cfb627320396ae570b27856342894c428f132e84d7e4b7a41034c62456bbe7464736f6c63430008070033","linkReferences":{}},"methodIdentifiers":{"addFees(address)":"64e084bf","balanceOf(address,address)":"f7888aec","batchClaiming(address[])":"09fc572f","claimFees(address)":"15a0ea6a","curves()":"5accf175","getClaimableFees(address,address)":"ebf34712","getUserTokens(address)":"519dc8d2","getUserTokensAndClaimable(address)":"20bf3447","managers(address)":"fdff9b4d","onBalanceChange(address,address)":"1e22e073","owner()":"8da5cb5b","setCurves(address)":"f079f3ea","setManager(address,bool)":"a5e90eee","totalSupply(address)":"e4dc2aa4","transferOwnership(address)":"f2fde38b"},"id":3}